{
  "contractName": "EMR",
  "abi": [
    {
      "inputs": [],
      "name": "Owner",
      "outputs": [
        {
          "internalType": "address",
          "name": "",
          "type": "address"
        }
      ],
      "stateMutability": "view",
      "type": "function",
      "constant": true
    },
    {
      "inputs": [
        {
          "internalType": "address",
          "name": "",
          "type": "address"
        },
        {
          "internalType": "address",
          "name": "",
          "type": "address"
        }
      ],
      "name": "_allowances",
      "outputs": [
        {
          "internalType": "uint256",
          "name": "",
          "type": "uint256"
        }
      ],
      "stateMutability": "view",
      "type": "function",
      "constant": true
    },
    {
      "inputs": [
        {
          "internalType": "address",
          "name": "",
          "type": "address"
        }
      ],
      "name": "_balances",
      "outputs": [
        {
          "internalType": "uint256",
          "name": "",
          "type": "uint256"
        }
      ],
      "stateMutability": "view",
      "type": "function",
      "constant": true
    },
    {
      "inputs": [],
      "name": "_totalSupply",
      "outputs": [
        {
          "internalType": "uint256",
          "name": "",
          "type": "uint256"
        }
      ],
      "stateMutability": "view",
      "type": "function",
      "constant": true
    },
    {
      "inputs": [
        {
          "internalType": "address",
          "name": "owner",
          "type": "address"
        },
        {
          "internalType": "address",
          "name": "spender",
          "type": "address"
        }
      ],
      "name": "allowance",
      "outputs": [
        {
          "internalType": "uint256",
          "name": "",
          "type": "uint256"
        }
      ],
      "stateMutability": "view",
      "type": "function",
      "constant": true
    },
    {
      "inputs": [
        {
          "internalType": "address",
          "name": "account",
          "type": "address"
        }
      ],
      "name": "balanceOf",
      "outputs": [
        {
          "internalType": "uint256",
          "name": "",
          "type": "uint256"
        }
      ],
      "stateMutability": "view",
      "type": "function",
      "constant": true
    },
    {
      "inputs": [
        {
          "internalType": "address",
          "name": "",
          "type": "address"
        },
        {
          "internalType": "uint256",
          "name": "",
          "type": "uint256"
        }
      ],
      "name": "doctorsPermissions",
      "outputs": [
        {
          "internalType": "address",
          "name": "",
          "type": "address"
        }
      ],
      "stateMutability": "view",
      "type": "function",
      "constant": true
    },
    {
      "inputs": [
        {
          "internalType": "address",
          "name": "",
          "type": "address"
        },
        {
          "internalType": "uint256",
          "name": "",
          "type": "uint256"
        }
      ],
      "name": "documents",
      "outputs": [
        {
          "internalType": "string",
          "name": "",
          "type": "string"
        }
      ],
      "stateMutability": "view",
      "type": "function",
      "constant": true
    },
    {
      "inputs": [
        {
          "internalType": "address",
          "name": "",
          "type": "address"
        },
        {
          "internalType": "uint256",
          "name": "",
          "type": "uint256"
        }
      ],
      "name": "insurancePermissions",
      "outputs": [
        {
          "internalType": "address",
          "name": "",
          "type": "address"
        }
      ],
      "stateMutability": "view",
      "type": "function",
      "constant": true
    },
    {
      "inputs": [],
      "name": "mytoken",
      "outputs": [
        {
          "internalType": "contract myToken",
          "name": "",
          "type": "address"
        }
      ],
      "stateMutability": "view",
      "type": "function",
      "constant": true
    },
    {
      "inputs": [
        {
          "internalType": "uint256",
          "name": "",
          "type": "uint256"
        }
      ],
      "name": "recordIndex",
      "outputs": [
        {
          "internalType": "string",
          "name": "patientName",
          "type": "string"
        },
        {
          "internalType": "address",
          "name": "patient",
          "type": "address"
        },
        {
          "internalType": "address",
          "name": "hospital",
          "type": "address"
        },
        {
          "internalType": "uint256",
          "name": "admissionDate",
          "type": "uint256"
        },
        {
          "internalType": "uint256",
          "name": "dischargeDate",
          "type": "uint256"
        },
        {
          "internalType": "string",
          "name": "visitReason",
          "type": "string"
        }
      ],
      "stateMutability": "view",
      "type": "function",
      "constant": true
    },
    {
      "inputs": [],
      "name": "tokenRewardAmount",
      "outputs": [
        {
          "internalType": "uint256",
          "name": "",
          "type": "uint256"
        }
      ],
      "stateMutability": "view",
      "type": "function",
      "constant": true
    },
    {
      "inputs": [],
      "name": "totalSupply",
      "outputs": [
        {
          "internalType": "uint256",
          "name": "",
          "type": "uint256"
        }
      ],
      "stateMutability": "view",
      "type": "function",
      "constant": true
    },
    {
      "inputs": [
        {
          "internalType": "string",
          "name": "patientName",
          "type": "string"
        },
        {
          "internalType": "address",
          "name": "patient",
          "type": "address"
        },
        {
          "internalType": "address",
          "name": "hospital",
          "type": "address"
        },
        {
          "internalType": "uint256",
          "name": "admissionDate",
          "type": "uint256"
        },
        {
          "internalType": "uint256",
          "name": "dischargeDate",
          "type": "uint256"
        },
        {
          "internalType": "string",
          "name": "visitReason",
          "type": "string"
        }
      ],
      "name": "addDocument",
      "outputs": [],
      "stateMutability": "nonpayable",
      "type": "function"
    },
    {
      "inputs": [
        {
          "internalType": "address",
          "name": "user",
          "type": "address"
        }
      ],
      "name": "getDocuments",
      "outputs": [
        {
          "internalType": "string[]",
          "name": "",
          "type": "string[]"
        }
      ],
      "stateMutability": "view",
      "type": "function",
      "constant": true
    },
    {
      "inputs": [
        {
          "internalType": "address",
          "name": "doctor",
          "type": "address"
        }
      ],
      "name": "giveAccessToDoctor",
      "outputs": [],
      "stateMutability": "nonpayable",
      "type": "function"
    },
    {
      "inputs": [
        {
          "internalType": "address",
          "name": "insurance",
          "type": "address"
        }
      ],
      "name": "giveAccessToIns",
      "outputs": [],
      "stateMutability": "nonpayable",
      "type": "function"
    },
    {
      "inputs": [
        {
          "internalType": "address",
          "name": "doctor",
          "type": "address"
        },
        {
          "internalType": "uint256",
          "name": "_recordIndex",
          "type": "uint256"
        }
      ],
      "name": "revokeAccessFromDoctor",
      "outputs": [],
      "stateMutability": "nonpayable",
      "type": "function"
    },
    {
      "inputs": [
        {
          "internalType": "address",
          "name": "insurance",
          "type": "address"
        },
        {
          "internalType": "uint256",
          "name": "_recordIndex",
          "type": "uint256"
        }
      ],
      "name": "revokeAccessFromIns",
      "outputs": [],
      "stateMutability": "nonpayable",
      "type": "function"
    },
    {
      "inputs": [
        {
          "internalType": "address",
          "name": "doctor",
          "type": "address"
        }
      ],
      "name": "getDoctorsPermissions",
      "outputs": [
        {
          "internalType": "address[]",
          "name": "",
          "type": "address[]"
        }
      ],
      "stateMutability": "view",
      "type": "function",
      "constant": true
    }
  ],
  "bytecode": "0x608060405234801561001057600080fd5b50611a09806100206000396000f3fe608060405234801561001057600080fd5b506004361061012c5760003560e01c80635eab74fc116100ad5780639c642d5d116100715780639c642d5d14610394578063b4a99a4e146103b2578063ccd19c05146103d0578063dd62ed3e146103ec578063fdd198571461041c5761012c565b80635eab74fc146102b657806363398844146102d45780636ebcf6071461030457806370a082311461033457806376e695ad146103645761012c565b80632fc48e61116100f45780632fc48e61146101fb5780633eaaf86b1461022b5780634c4f90fa146102495780635074ee531461026557806351727c06146102815761012c565b8063024c2ddd1461013157806306be09d81461016157806318160ddd1461019157806327f50a2d146101af57806328b2b968146101df575b600080fd5b61014b60048036038101906101469190611205565b610438565b604051610158919061165a565b60405180910390f35b61017b600480360381019061017691906111dc565b61045d565b604051610188919061154a565b60405180910390f35b61019961052a565b6040516101a6919061165a565b60405180910390f35b6101c960048036038101906101c491906111dc565b610534565b6040516101d6919061156c565b60405180910390f35b6101f960048036038101906101f491906111dc565b61064c565b005b61021560048036038101906102109190611241565b6106ef565b604051610222919061152f565b60405180910390f35b61023361073d565b604051610240919061165a565b60405180910390f35b610263600480360381019061025e91906111dc565b610743565b005b61027f600480360381019061027a919061127d565b6107e6565b005b61029b60048036038101906102969190611336565b61096d565b6040516102ad969594939291906115cb565b60405180910390f35b6102be610af9565b6040516102cb919061158e565b60405180910390f35b6102ee60048036038101906102e99190611241565b610b1f565b6040516102fb91906115a9565b60405180910390f35b61031e600480360381019061031991906111dc565b610bd8565b60405161032b919061165a565b60405180910390f35b61034e600480360381019061034991906111dc565b610bf0565b60405161035b919061165a565b60405180910390f35b61037e60048036038101906103799190611241565b610c38565b60405161038b919061152f565b60405180910390f35b61039c610c86565b6040516103a9919061165a565b60405180910390f35b6103ba610c8c565b6040516103c7919061152f565b60405180910390f35b6103ea60048036038101906103e59190611241565b610cb2565b005b61040660048036038101906104019190611205565b610e69565b604051610413919061165a565b60405180910390f35b61043660048036038101906104319190611241565b610ef0565b005b6001602052816000526040600020602052806000526040600020600091509150505481565b6060600960008373ffffffffffffffffffffffffffffffffffffffff1673ffffffffffffffffffffffffffffffffffffffff16815260200190815260200160002080548060200260200160405190810160405280929190818152602001828054801561051e57602002820191906000526020600020905b8160009054906101000a900473ffffffffffffffffffffffffffffffffffffffff1673ffffffffffffffffffffffffffffffffffffffff16815260200190600101908083116104d4575b50505050509050919050565b6000600254905090565b6060600760008373ffffffffffffffffffffffffffffffffffffffff1673ffffffffffffffffffffffffffffffffffffffff168152602001908152602001600020805480602002602001604051908101604052809291908181526020016000905b828210156106415783829060005260206000200180546105b49061180c565b80601f01602080910402602001604051908101604052809291908181526020018280546105e09061180c565b801561062d5780601f106106025761010080835404028352916020019161062d565b820191906000526020600020905b81548152906001019060200180831161061057829003601f168201915b505050505081526020019060010190610595565b505050509050919050565b600960008273ffffffffffffffffffffffffffffffffffffffff1673ffffffffffffffffffffffffffffffffffffffff168152602001908152602001600020339080600181540180825580915050600190039060005260206000200160009091909190916101000a81548173ffffffffffffffffffffffffffffffffffffffff021916908373ffffffffffffffffffffffffffffffffffffffff16021790555050565b600a602052816000526040600020818154811061070b57600080fd5b906000526020600020016000915091509054906101000a900473ffffffffffffffffffffffffffffffffffffffff1681565b60025481565b600a60008273ffffffffffffffffffffffffffffffffffffffff1673ffffffffffffffffffffffffffffffffffffffff168152602001908152602001600020339080600181540180825580915050600190039060005260206000200160009091909190916101000a81548173ffffffffffffffffffffffffffffffffffffffff021916908373ffffffffffffffffffffffffffffffffffffffff16021790555050565b60006040518060c001604052808881526020018773ffffffffffffffffffffffffffffffffffffffff1681526020018673ffffffffffffffffffffffffffffffffffffffff16815260200185815260200184815260200183815250905080600860006005600081548092919061085b9061186f565b91905055815260200190815260200160002060008201518160000190805190602001906108899291906110a7565b5060208201518160010160006101000a81548173ffffffffffffffffffffffffffffffffffffffff021916908373ffffffffffffffffffffffffffffffffffffffff16021790555060408201518160020160006101000a81548173ffffffffffffffffffffffffffffffffffffffff021916908373ffffffffffffffffffffffffffffffffffffffff160217905550606082015181600301556080820151816004015560a08201518160050190805190602001906109489291906110a7565b509050506005600081548092919061095f9061186f565b919050555050505050505050565b60086020528060005260406000206000915090508060000180546109909061180c565b80601f01602080910402602001604051908101604052809291908181526020018280546109bc9061180c565b8015610a095780601f106109de57610100808354040283529160200191610a09565b820191906000526020600020905b8154815290600101906020018083116109ec57829003601f168201915b5050505050908060010160009054906101000a900473ffffffffffffffffffffffffffffffffffffffff16908060020160009054906101000a900473ffffffffffffffffffffffffffffffffffffffff1690806003015490806004015490806005018054610a769061180c565b80601f0160208091040260200160405190810160405280929190818152602001828054610aa29061180c565b8015610aef5780601f10610ac457610100808354040283529160200191610aef565b820191906000526020600020905b815481529060010190602001808311610ad257829003601f168201915b5050505050905086565b600360009054906101000a900473ffffffffffffffffffffffffffffffffffffffff1681565b60076020528160005260406000208181548110610b3b57600080fd5b90600052602060002001600091509150508054610b579061180c565b80601f0160208091040260200160405190810160405280929190818152602001828054610b839061180c565b8015610bd05780601f10610ba557610100808354040283529160200191610bd0565b820191906000526020600020905b815481529060010190602001808311610bb357829003601f168201915b505050505081565b60006020528060005260406000206000915090505481565b60008060008373ffffffffffffffffffffffffffffffffffffffff1673ffffffffffffffffffffffffffffffffffffffff168152602001908152602001600020549050919050565b60096020528160005260406000208181548110610c5457600080fd5b906000526020600020016000915091509054906101000a900473ffffffffffffffffffffffffffffffffffffffff1681565b60065481565b600460009054906101000a900473ffffffffffffffffffffffffffffffffffffffff1681565b3373ffffffffffffffffffffffffffffffffffffffff16600a60008473ffffffffffffffffffffffffffffffffffffffff1673ffffffffffffffffffffffffffffffffffffffff1681526020019081526020016000208281548110610d40577f4e487b7100000000000000000000000000000000000000000000000000000000600052603260045260246000fd5b9060005260206000200160009054906101000a900473ffffffffffffffffffffffffffffffffffffffff1673ffffffffffffffffffffffffffffffffffffffff1614610dc1576040517f08c379a0000000000000000000000000000000000000000000000000000000008152600401610db89061163a565b60405180910390fd5b600a60008373ffffffffffffffffffffffffffffffffffffffff1673ffffffffffffffffffffffffffffffffffffffff1681526020019081526020016000208181548110610e38577f4e487b7100000000000000000000000000000000000000000000000000000000600052603260045260246000fd5b9060005260206000200160006101000a81549073ffffffffffffffffffffffffffffffffffffffff02191690555050565b6000600160008473ffffffffffffffffffffffffffffffffffffffff1673ffffffffffffffffffffffffffffffffffffffff16815260200190815260200160002060008373ffffffffffffffffffffffffffffffffffffffff1673ffffffffffffffffffffffffffffffffffffffff16815260200190815260200160002054905092915050565b3373ffffffffffffffffffffffffffffffffffffffff16600960008473ffffffffffffffffffffffffffffffffffffffff1673ffffffffffffffffffffffffffffffffffffffff1681526020019081526020016000208281548110610f7e577f4e487b7100000000000000000000000000000000000000000000000000000000600052603260045260246000fd5b9060005260206000200160009054906101000a900473ffffffffffffffffffffffffffffffffffffffff1673ffffffffffffffffffffffffffffffffffffffff1614610fff576040517f08c379a0000000000000000000000000000000000000000000000000000000008152600401610ff69061163a565b60405180910390fd5b600960008373ffffffffffffffffffffffffffffffffffffffff1673ffffffffffffffffffffffffffffffffffffffff1681526020019081526020016000208181548110611076577f4e487b7100000000000000000000000000000000000000000000000000000000600052603260045260246000fd5b9060005260206000200160006101000a81549073ffffffffffffffffffffffffffffffffffffffff02191690555050565b8280546110b39061180c565b90600052602060002090601f0160209004810192826110d5576000855561111c565b82601f106110ee57805160ff191683800117855561111c565b8280016001018555821561111c579182015b8281111561111b578251825591602001919060010190611100565b5b509050611129919061112d565b5090565b5b8082111561114657600081600090555060010161112e565b5090565b600061115d6111588461169a565b611675565b90508281526020810184848401111561117557600080fd5b6111808482856117ca565b509392505050565b600081359050611197816119a5565b92915050565b600082601f8301126111ae57600080fd5b81356111be84826020860161114a565b91505092915050565b6000813590506111d6816119bc565b92915050565b6000602082840312156111ee57600080fd5b60006111fc84828501611188565b91505092915050565b6000806040838503121561121857600080fd5b600061122685828601611188565b925050602061123785828601611188565b9150509250929050565b6000806040838503121561125457600080fd5b600061126285828601611188565b9250506020611273858286016111c7565b9150509250929050565b60008060008060008060c0878903121561129657600080fd5b600087013567ffffffffffffffff8111156112b057600080fd5b6112bc89828a0161119d565b96505060206112cd89828a01611188565b95505060406112de89828a01611188565b94505060606112ef89828a016111c7565b935050608061130089828a016111c7565b92505060a087013567ffffffffffffffff81111561131d57600080fd5b61132989828a0161119d565b9150509295509295509295565b60006020828403121561134857600080fd5b6000611356848285016111c7565b91505092915050565b600061136b838361138b565b60208301905092915050565b6000611383838361148b565b905092915050565b6113948161176a565b82525050565b6113a38161176a565b82525050565b60006113b4826116eb565b6113be8185611726565b93506113c9836116cb565b8060005b838110156113fa5781516113e1888261135f565b97506113ec8361170c565b9250506001810190506113cd565b5085935050505092915050565b6000611412826116f6565b61141c8185611737565b93508360208202850161142e856116db565b8060005b8581101561146a578484038952815161144b8582611377565b945061145683611719565b925060208a01995050600181019050611432565b50829750879550505050505092915050565b611485816117a6565b82525050565b600061149682611701565b6114a08185611748565b93506114b08185602086016117d9565b6114b981611945565b840191505092915050565b60006114cf82611701565b6114d98185611759565b93506114e98185602086016117d9565b6114f281611945565b840191505092915050565b600061150a603183611759565b915061151582611956565b604082019050919050565b6115298161179c565b82525050565b6000602082019050611544600083018461139a565b92915050565b6000602082019050818103600083015261156481846113a9565b905092915050565b600060208201905081810360008301526115868184611407565b905092915050565b60006020820190506115a3600083018461147c565b92915050565b600060208201905081810360008301526115c381846114c4565b905092915050565b600060c08201905081810360008301526115e581896114c4565b90506115f4602083018861139a565b611601604083018761139a565b61160e6060830186611520565b61161b6080830185611520565b81810360a083015261162d81846114c4565b9050979650505050505050565b60006020820190508181036000830152611653816114fd565b9050919050565b600060208201905061166f6000830184611520565b92915050565b600061167f611690565b905061168b828261183e565b919050565b6000604051905090565b600067ffffffffffffffff8211156116b5576116b4611916565b5b6116be82611945565b9050602081019050919050565b6000819050602082019050919050565b6000819050602082019050919050565b600081519050919050565b600081519050919050565b600081519050919050565b6000602082019050919050565b6000602082019050919050565b600082825260208201905092915050565b600082825260208201905092915050565b600082825260208201905092915050565b600082825260208201905092915050565b60006117758261177c565b9050919050565b600073ffffffffffffffffffffffffffffffffffffffff82169050919050565b6000819050919050565b60006117b1826117b8565b9050919050565b60006117c38261177c565b9050919050565b82818337600083830152505050565b60005b838110156117f75780820151818401526020810190506117dc565b83811115611806576000848401525b50505050565b6000600282049050600182168061182457607f821691505b60208210811415611838576118376118e7565b5b50919050565b61184782611945565b810181811067ffffffffffffffff8211171561186657611865611916565b5b80604052505050565b600061187a8261179c565b91507fffffffffffffffffffffffffffffffffffffffffffffffffffffffffffffffff8214156118ad576118ac6118b8565b5b600182019050919050565b7f4e487b7100000000000000000000000000000000000000000000000000000000600052601160045260246000fd5b7f4e487b7100000000000000000000000000000000000000000000000000000000600052602260045260246000fd5b7f4e487b7100000000000000000000000000000000000000000000000000000000600052604160045260246000fd5b6000601f19601f8301169050919050565b7f596f752063616e206f6e6c79207265766f6b652061636365737320746f20796f60008201527f7572206f776e20646f63756d656e74732e000000000000000000000000000000602082015250565b6119ae8161176a565b81146119b957600080fd5b50565b6119c58161179c565b81146119d057600080fd5b5056fea26469706673582212205f47b0ce063be52fcda932af0fc0ad17b530182db86b6c06b0d067947e29ba5e64736f6c63430008030033",
  "immutableReferences": {},
  "source": "// SPDX-License-Identifier: GPL-3.0\npragma solidity  >=0.4.0 <0.9.0;\n\n\n\ncontract ERC20 {\n    mapping (address => uint256) public _balances;\n    mapping (address => mapping (address => uint256)) public _allowances;\n    uint256 public _totalSupply;\n\n\n\n        function totalSupply() public view returns (uint256) {\n        return _totalSupply;\n    }\n\n    \n    function balanceOf(address account) public view returns (uint256) {\n        return _balances[account];\n    }\n\n      function allowance(address owner, address spender) public view returns (uint256) {\n        return _allowances[owner][spender];\n    }\n\n    function _mint(address account, uint256 amount) internal {\n        require(account != address(0), \"ERC20: mint to the zero address\");\n\n        _totalSupply += amount;\n        _balances[account] += amount;\n    }\n\n     function _burn(address account, uint256 amount) internal {\n        require(account != address(0), \"ERC20: burn from the zero address\");\n        uint256 accountBalance = _balances[account];\n        require(accountBalance >= amount, \"ERC20: burn amount exceeds balance\");\n        _balances[account] = accountBalance - amount;\n        _totalSupply -= amount;\n    }\n\n \n\n}\n\nlibrary SafeMath {\n  \n    function add(uint256 a, uint256 b) internal pure returns (uint256) {\n        uint256 c = a + b;\n        require(c >= a, \"SafeMath: addition overflow\");\n\n        return c;\n    }\n\n \n    function sub(uint256 a, uint256 b) internal pure returns (uint256) {\n        return sub(a, b, \"SafeMath: subtraction overflow\");\n    }\n\n   \n    function sub(uint256 a, uint256 b, string memory errorMessage) internal pure returns (uint256) {\n        require(b <= a, errorMessage);\n        uint256 c = a - b;\n\n        return c;\n    }\n\n    function mul(uint256 a, uint256 b) internal pure returns (uint256) {\n       \n        if (a == 0) {\n            return 0;\n        }\n\n        uint256 c = a * b;\n        require(c / a == b, \"SafeMath: multiplication overflow\");\n\n        return c;\n    }\n\n    function div(uint256 a, uint256 b) internal pure returns (uint256) {\n        return div(a, b, \"SafeMath: division by zero\");\n    }\n\n    function div(uint256 a, uint256 b, string memory errorMessage) internal pure returns (uint256) {\n        // Solidity only automatically asserts when dividing by 0\n        require(b > 0, errorMessage);\n        uint256 c = a / b;\n        // assert(a == b * c + a % b); // There is no case in which this doesn't hold\n\n        return c;\n    }\n\n    function mod(uint256 a, uint256 b) internal pure returns (uint256) {\n        return mod(a, b, \"SafeMath: modulo by zero\");\n    }\n\n    function mod(uint256 a, uint256 b, string memory errorMessage) internal pure returns (uint256) {\n        require(b != 0, errorMessage);\n        return a % b;\n    }\n}\n\ncontract myToken is ERC20 {\n\n    string public constant name = \"myToken\"; \n    string public constant  symbol = \"TKN\";\n    uint8 public constant decimals = 18;  \n\n\n  uint256 public constant INITIAL_SUPPLY = 10000 * (10 ** uint256(decimals));\n\n  mapping(address => uint256) balances;\n\n  mapping(address => mapping (address => uint256)) allowed;\n\n  uint256 totalSupply_;\n\n  using SafeMath for uint256;\n}\n\ncontract EMR is ERC20 {\n    myToken public mytoken;\n    address public Owner;\n    uint Counter;\n    uint256 public tokenRewardAmount;\n\n     struct Records {\n        string patientName;\n        address patient;\n        address hospital;\n        uint256 admissionDate;\n        uint256 dischargeDate;\n        string visitReason;\n    }\n  /* Every user has a list of documents. */\n  mapping (address => string[]) public documents;\n  mapping(uint => Records) public recordIndex;\n\n\nmodifier OnlyOwner (){\n        require( Owner == msg.sender, \"you are not the owner\");\n        _;\n    }\nmodifier higherThanZero(uint256 _uint) {\n        require(_uint > 0);\n        _;\n    }\n\n  /**\n   * Add a medical record.\n   * Returns the index of the medical record.\n   */\n  function addDocument(string memory patientName, address patient, address hospital,  uint256 admissionDate,  uint256 dischargeDate, string memory visitReason ) public {\n    Records memory newDoc = Records (patientName, patient, hospital, admissionDate, dischargeDate, visitReason );\n    recordIndex[Counter++] = newDoc;\n    Counter++;\n\n  }\n\n  /**\n   * Get all medical records of a user.\n   */\n  function getDocuments(address user) public view returns (string[] memory) {\n    return documents[user];\n  }\n\n  /**\n   * A user can specify, which hospitals are allowed to view their medical records.\n   * Access is granted, when the user adds his address to a doctors list of patients.\n   * As soon as the user address is removed from the list, access for the doctor is revoked.\n   *\n   * mapping: doctorsAddress -> patientsAddresses\n   */\n  mapping (address => address[]) public doctorsPermissions;\n  mapping (address => address[]) public insurancePermissions;\n\n  /**\n   * Allow a doctor/insurance to view all your documents.\n   */\n  function giveAccessToDoctor(address doctor) public {\n    doctorsPermissions[doctor].push(msg.sender);\n  }\n \n function giveAccessToIns(address insurance) public {\n   insurancePermissions[insurance].push(msg.sender);\n  }\n  \n  /**\n   * Revoke access to your documents.\n   */\n   \n  function revokeAccessFromDoctor(address doctor, uint _recordIndex) public {\n    require(doctorsPermissions[doctor][_recordIndex] == msg.sender, 'You can only revoke access to your own documents.');\n    delete doctorsPermissions[doctor][_recordIndex];\n  }\n  \n   function revokeAccessFromIns(address insurance,  uint _recordIndex) public {\n    require(insurancePermissions[insurance][ _recordIndex] == msg.sender, 'You can only revoke access to your own documents.');\n    delete insurancePermissions[insurance][ _recordIndex];\n  }\n\n  /**\n   * Returns all the patients addresses that gave the doctor access.\n   */\n  function getDoctorsPermissions(address doctor) public view returns (address[] memory) {\n    return doctorsPermissions[doctor];\n  }\n\n  function setmyTokenReward(uint256 _tokenReward) private OnlyOwner higherThanZero(_tokenReward)\n    {\n        tokenRewardAmount = _tokenReward;\n         _mint(msg.sender, _tokenReward);\n    \n    }\n\n}",
  "sourcePath": "/Users/aak/Desktop/EMR/contracts/EMR.sol",
  "compiler": {
    "name": "solc",
    "version": "0.8.3+commit.8d00100c.Emscripten.clang"
  },
  "schemaVersion": "3.3.4",
  "updatedAt": "2021-04-20T12:29:06.076Z",
  "networkType": "ethereum",
  "devdoc": {
    "kind": "dev",
    "methods": {},
    "version": 1
  },
  "userdoc": {
    "kind": "user",
    "methods": {
      "addDocument(string,address,address,uint256,uint256,string)": {
        "notice": "Add a medical record. Returns the index of the medical record."
      },
      "doctorsPermissions(address,uint256)": {
        "notice": "A user can specify, which hospitals are allowed to view their medical records. Access is granted, when the user adds his address to a doctors list of patients. As soon as the user address is removed from the list, access for the doctor is revoked. mapping: doctorsAddress -> patientsAddresses"
      },
      "getDoctorsPermissions(address)": {
        "notice": "Returns all the patients addresses that gave the doctor access."
      },
      "getDocuments(address)": {
        "notice": "Get all medical records of a user."
      },
      "giveAccessToDoctor(address)": {
        "notice": "Allow a doctor/insurance to view all your documents."
      },
      "revokeAccessFromDoctor(address,uint256)": {
        "notice": "Revoke access to your documents."
      }
    },
    "version": 1
  }
}