{
  "contractName": "myToken",
  "abi": [
    {
      "inputs": [],
      "name": "INITIAL_SUPPLY",
      "outputs": [
        {
          "internalType": "uint256",
          "name": "",
          "type": "uint256"
        }
      ],
      "stateMutability": "view",
      "type": "function"
    },
    {
      "inputs": [
        {
          "internalType": "address",
          "name": "",
          "type": "address"
        },
        {
          "internalType": "address",
          "name": "",
          "type": "address"
        }
      ],
      "name": "_allowances",
      "outputs": [
        {
          "internalType": "uint256",
          "name": "",
          "type": "uint256"
        }
      ],
      "stateMutability": "view",
      "type": "function"
    },
    {
      "inputs": [
        {
          "internalType": "address",
          "name": "",
          "type": "address"
        }
      ],
      "name": "_balances",
      "outputs": [
        {
          "internalType": "uint256",
          "name": "",
          "type": "uint256"
        }
      ],
      "stateMutability": "view",
      "type": "function"
    },
    {
      "inputs": [],
      "name": "_totalSupply",
      "outputs": [
        {
          "internalType": "uint256",
          "name": "",
          "type": "uint256"
        }
      ],
      "stateMutability": "view",
      "type": "function"
    },
    {
      "inputs": [
        {
          "internalType": "address",
          "name": "owner",
          "type": "address"
        },
        {
          "internalType": "address",
          "name": "spender",
          "type": "address"
        }
      ],
      "name": "allowance",
      "outputs": [
        {
          "internalType": "uint256",
          "name": "",
          "type": "uint256"
        }
      ],
      "stateMutability": "view",
      "type": "function"
    },
    {
      "inputs": [
        {
          "internalType": "address",
          "name": "account",
          "type": "address"
        }
      ],
      "name": "balanceOf",
      "outputs": [
        {
          "internalType": "uint256",
          "name": "",
          "type": "uint256"
        }
      ],
      "stateMutability": "view",
      "type": "function"
    },
    {
      "inputs": [],
      "name": "decimals",
      "outputs": [
        {
          "internalType": "uint8",
          "name": "",
          "type": "uint8"
        }
      ],
      "stateMutability": "view",
      "type": "function"
    },
    {
      "inputs": [],
      "name": "name",
      "outputs": [
        {
          "internalType": "string",
          "name": "",
          "type": "string"
        }
      ],
      "stateMutability": "view",
      "type": "function"
    },
    {
      "inputs": [],
      "name": "symbol",
      "outputs": [
        {
          "internalType": "string",
          "name": "",
          "type": "string"
        }
      ],
      "stateMutability": "view",
      "type": "function"
    },
    {
      "inputs": [],
      "name": "totalSupply",
      "outputs": [
        {
          "internalType": "uint256",
          "name": "",
          "type": "uint256"
        }
      ],
      "stateMutability": "view",
      "type": "function"
    }
  ],
  "bytecode": "0x608060405234801561001057600080fd5b506107f1806100206000396000f3fe608060405234801561001057600080fd5b506004361061009e5760003560e01c80633eaaf86b116100665780633eaaf86b1461014b5780636ebcf6071461016957806370a082311461019957806395d89b41146101c9578063dd62ed3e146101e75761009e565b8063024c2ddd146100a357806306fdde03146100d357806318160ddd146100f15780632ff2e9dc1461010f578063313ce5671461012d575b600080fd5b6100bd60048036038101906100b89190610409565b610217565b6040516100ca91906104be565b60405180910390f35b6100db61023c565b6040516100e8919061049c565b60405180910390f35b6100f9610275565b60405161010691906104be565b60405180910390f35b61011761027f565b60405161012491906104be565b60405180910390f35b6101356102a0565b60405161014291906104d9565b60405180910390f35b6101536102a5565b60405161016091906104be565b60405180910390f35b610183600480360381019061017e91906103e0565b6102ab565b60405161019091906104be565b60405180910390f35b6101b360048036038101906101ae91906103e0565b6102c3565b6040516101c091906104be565b60405180910390f35b6101d161030b565b6040516101de919061049c565b60405180910390f35b61020160048036038101906101fc9190610409565b610344565b60405161020e91906104be565b60405180910390f35b6001602052816000526040600020602052806000526040600020600091509150505481565b6040518060400160405280600781526020017f6d79546f6b656e0000000000000000000000000000000000000000000000000081525081565b6000600254905090565b601260ff16600a6102909190610563565b61271061029d9190610681565b81565b601281565b60025481565b60006020528060005260406000206000915090505481565b60008060008373ffffffffffffffffffffffffffffffffffffffff1673ffffffffffffffffffffffffffffffffffffffff168152602001908152602001600020549050919050565b6040518060400160405280600381526020017f544b4e000000000000000000000000000000000000000000000000000000000081525081565b6000600160008473ffffffffffffffffffffffffffffffffffffffff1673ffffffffffffffffffffffffffffffffffffffff16815260200190815260200160002060008373ffffffffffffffffffffffffffffffffffffffff1673ffffffffffffffffffffffffffffffffffffffff16815260200190815260200160002054905092915050565b6000813590506103da816107a4565b92915050565b6000602082840312156103f257600080fd5b6000610400848285016103cb565b91505092915050565b6000806040838503121561041c57600080fd5b600061042a858286016103cb565b925050602061043b858286016103cb565b9150509250929050565b6000610450826104f4565b61045a81856104ff565b935061046a818560208601610724565b61047381610786565b840191505092915050565b6104878161070d565b82525050565b61049681610717565b82525050565b600060208201905081810360008301526104b68184610445565b905092915050565b60006020820190506104d3600083018461047e565b92915050565b60006020820190506104ee600083018461048d565b92915050565b600081519050919050565b600082825260208201905092915050565b6000808291508390505b600185111561055a5780860481111561053657610535610757565b5b60018516156105455780820291505b808102905061055385610797565b945061051a565b94509492505050565b600061056e8261070d565b91506105798361070d565b92506105a67fffffffffffffffffffffffffffffffffffffffffffffffffffffffffffffffff84846105ae565b905092915050565b6000826105be576001905061067a565b816105cc576000905061067a565b81600181146105e257600281146105ec5761061b565b600191505061067a565b60ff8411156105fe576105fd610757565b5b8360020a91508482111561061557610614610757565b5b5061067a565b5060208310610133831016604e8410600b84101617156106505782820a90508381111561064b5761064a610757565b5b61067a565b61065d8484846001610510565b9250905081840481111561067457610673610757565b5b81810290505b9392505050565b600061068c8261070d565b91506106978361070d565b9250817fffffffffffffffffffffffffffffffffffffffffffffffffffffffffffffffff04831182151516156106d0576106cf610757565b5b828202905092915050565b60006106e6826106ed565b9050919050565b600073ffffffffffffffffffffffffffffffffffffffff82169050919050565b6000819050919050565b600060ff82169050919050565b60005b83811015610742578082015181840152602081019050610727565b83811115610751576000848401525b50505050565b7f4e487b7100000000000000000000000000000000000000000000000000000000600052601160045260246000fd5b6000601f19601f8301169050919050565b60008160011c9050919050565b6107ad816106db565b81146107b857600080fd5b5056fea26469706673582212209ba596b64a4bfd9990b2746bb48ebd3faf595f524c58ef11e5524d6f0a6c0c3b64736f6c63430008030033",
  "immutableReferences": {},
  "source": "// SPDX-License-Identifier: GPL-3.0\npragma solidity  >=0.4.0 <0.9.0;\n\n\n\ncontract ERC20 {\n    mapping (address => uint256) public _balances;\n    mapping (address => mapping (address => uint256)) public _allowances;\n    uint256 public _totalSupply;\n\n\n\n        function totalSupply() public view returns (uint256) {\n        return _totalSupply;\n    }\n\n    \n    function balanceOf(address account) public view returns (uint256) {\n        return _balances[account];\n    }\n\n      function allowance(address owner, address spender) public view returns (uint256) {\n        return _allowances[owner][spender];\n    }\n\n    function _mint(address account, uint256 amount) internal {\n        require(account != address(0), \"ERC20: mint to the zero address\");\n\n        _totalSupply += amount;\n        _balances[account] += amount;\n    }\n\n     function _burn(address account, uint256 amount) internal {\n        require(account != address(0), \"ERC20: burn from the zero address\");\n        uint256 accountBalance = _balances[account];\n        require(accountBalance >= amount, \"ERC20: burn amount exceeds balance\");\n        _balances[account] = accountBalance - amount;\n        _totalSupply -= amount;\n    }\n\n \n\n}\n\nlibrary SafeMath {\n  \n    function add(uint256 a, uint256 b) internal pure returns (uint256) {\n        uint256 c = a + b;\n        require(c >= a, \"SafeMath: addition overflow\");\n\n        return c;\n    }\n\n \n    function sub(uint256 a, uint256 b) internal pure returns (uint256) {\n        return sub(a, b, \"SafeMath: subtraction overflow\");\n    }\n\n   \n    function sub(uint256 a, uint256 b, string memory errorMessage) internal pure returns (uint256) {\n        require(b <= a, errorMessage);\n        uint256 c = a - b;\n\n        return c;\n    }\n\n    function mul(uint256 a, uint256 b) internal pure returns (uint256) {\n       \n        if (a == 0) {\n            return 0;\n        }\n\n        uint256 c = a * b;\n        require(c / a == b, \"SafeMath: multiplication overflow\");\n\n        return c;\n    }\n\n    function div(uint256 a, uint256 b) internal pure returns (uint256) {\n        return div(a, b, \"SafeMath: division by zero\");\n    }\n\n    function div(uint256 a, uint256 b, string memory errorMessage) internal pure returns (uint256) {\n        // Solidity only automatically asserts when dividing by 0\n        require(b > 0, errorMessage);\n        uint256 c = a / b;\n        // assert(a == b * c + a % b); // There is no case in which this doesn't hold\n\n        return c;\n    }\n\n    function mod(uint256 a, uint256 b) internal pure returns (uint256) {\n        return mod(a, b, \"SafeMath: modulo by zero\");\n    }\n\n    function mod(uint256 a, uint256 b, string memory errorMessage) internal pure returns (uint256) {\n        require(b != 0, errorMessage);\n        return a % b;\n    }\n}\n\ncontract myToken is ERC20 {\n\n    string public constant name = \"myToken\"; \n    string public constant  symbol = \"TKN\";\n    uint8 public constant decimals = 18;  \n\n\n  uint256 public constant INITIAL_SUPPLY = 10000 * (10 ** uint256(decimals));\n\n  mapping(address => uint256) balances;\n\n  mapping(address => mapping (address => uint256)) allowed;\n\n  uint256 totalSupply_;\n\n  using SafeMath for uint256;\n}\n\ncontract EMR is ERC20 {\n    myToken public mytoken;\n    address public Owner;\n    uint Counter;\n    uint256 public tokenRewardAmount;\n\n     struct Records {\n        string patientName;\n        address patient;\n        address hospital;\n        uint256 admissionDate;\n        uint256 dischargeDate;\n        string visitReason;\n    }\n  /* Every user has a list of documents. */\n  mapping (address => string[]) public documents;\n  mapping(uint => Records) public recordIndex;\n\n\nmodifier OnlyOwner (){\n        require( Owner == msg.sender, \"you are not the owner\");\n        _;\n    }\nmodifier higherThanZero(uint256 _uint) {\n        require(_uint > 0);\n        _;\n    }\n\n  /**\n   * Add a medical record.\n   * Returns the index of the medical record.\n   */\n  function addDocument(string memory patientName, address patient, address hospital,  uint256 admissionDate,  uint256 dischargeDate, string memory visitReason ) public {\n    Records memory newDoc = Records (patientName, patient, hospital, admissionDate, dischargeDate, visitReason );\n    recordIndex[Counter++] = newDoc;\n    Counter++;\n\n  }\n\n  /**\n   * Get all medical records of a user.\n   */\n  function getDocuments(address user) public view returns (string[] memory) {\n    return documents[user];\n  }\n\n  /**\n   * A user can specify, which hospitals are allowed to view their medical records.\n   * Access is granted, when the user adds his address to a doctors list of patients.\n   * As soon as the user address is removed from the list, access for the doctor is revoked.\n   *\n   * mapping: doctorsAddress -> patientsAddresses\n   */\n  mapping (address => address[]) public doctorsPermissions;\n  mapping (address => address[]) public insurancePermissions;\n\n  /**\n   * Allow a doctor/insurance to view all your documents.\n   */\n  function giveAccessToDoctor(address doctor) public {\n    doctorsPermissions[doctor].push(msg.sender);\n  }\n \n function giveAccessToIns(address insurance) public {\n   insurancePermissions[insurance].push(msg.sender);\n  }\n  \n  /**\n   * Revoke access to your documents.\n   */\n   \n  function revokeAccessFromDoctor(address doctor, uint _recordIndex) public {\n    require(doctorsPermissions[doctor][_recordIndex] == msg.sender, 'You can only revoke access to your own documents.');\n    delete doctorsPermissions[doctor][_recordIndex];\n  }\n  \n   function revokeAccessFromIns(address insurance,  uint _recordIndex) public {\n    require(insurancePermissions[insurance][ _recordIndex] == msg.sender, 'You can only revoke access to your own documents.');\n    delete insurancePermissions[insurance][ _recordIndex];\n  }\n\n  /**\n   * Returns all the patients addresses that gave the doctor access.\n   */\n  function getDoctorsPermissions(address doctor) public view returns (address[] memory) {\n    return doctorsPermissions[doctor];\n  }\n\n  function setmyTokenReward(uint256 _tokenReward) private OnlyOwner higherThanZero(_tokenReward)\n    {\n        tokenRewardAmount = _tokenReward;\n         _mint(msg.sender, _tokenReward);\n    \n    }\n\n}",
  "sourcePath": "/Users/aak/Desktop/EMR/contracts/EMR.sol",
  "compiler": {
    "name": "solc",
    "version": "0.8.3+commit.8d00100c.Emscripten.clang"
  },
  "schemaVersion": "3.3.4",
  "updatedAt": "2021-04-20T12:29:03.557Z",
  "devdoc": {
    "kind": "dev",
    "methods": {},
    "version": 1
  },
  "userdoc": {
    "kind": "user",
    "methods": {},
    "version": 1
  }
}